:100EA20051000548656C6C6F2C4C454420435542FB
:100EB200494321004700164D4F44454C2000420053
:100EC2000100FF440021000000004400390000003E
:0A0ED2000041000000420003000090
:100E1700D2A0120F36120C10120F25C2A07F557EDA
:100E270000120E667F557E00120E667F557E0012F9
:100E37000E667F557E00120E667FAA7E00120E6632
:100E47007FAA7E00120E667FAA7E00120E667FAA18
:070E57007E00120E6680C64A
:100DAF00D2A1D2A2D2A3D2A5120DD6C2A1C2A2C2E3
:100DBF00A3C2A590001DE0FF900003E0FCA3E0FD9F
:070DCF00C3EF9DFFE49CFE51
:100DD600D2A0E4FBFAC3EB9FEA9E50147C007D325E
:100DE600ED1D70011CED4C70F70BBB00010A80E590
:100DF600C2A0E4FAFBC3EB9FEA9E50147C007D324E
:100E0600ED1D70011CED4C70F70BBB00010A80E56F
:010E160022B9
:080A680090003EEEF0A3EFF058
:100A7000900044E4F0A304F0900044E0FEA3E0FF03
:100A8000C39410EE94004003020B63120F0F90000A
:100A900040E4F0A304F0900040E0FEA3E0FFC39424
:100AA00008EE940050657E007401A807088005C315
:100AB00033CE33CED8F9FF120E6690003EE0FEA38F
:100AC000E0FF120DD6900042E4F0A304F0E4FFFE34
:100AD000120E6690003EE0FEA3E0FF120DD69000DD
:100AE00043E004F07006900042E004F0C39000433D
:100AF000E09404900042E0940040D2900041E00471
:100B0000F07093900040E004F0808B7F017E001233
:100B10000E6690003EE0FEA3E0FF120DD69000426C
:100B2000E4F0A304F0E4FFFE120E6690003EE0FE47
:100B3000A3E0FF120DD6900043E004F07006900091
:100B400042E004F0C3900043E09404900042E0943B
:100B50000040D2900045E025E0F0900044E033F002
:060B6000020A78020F25D5
:100F0F00EF13B39294EFA2E1B39291A2E2B3929254
:060F1F00A2E3B39293224D
:100D3E0090003EEEF0A3EFF0120E66120E5E120E53
:100D4E005E120E5E90001D7414F0E4900003F0A38A
:100D5E00F090001DE0F9FD900003E0FEA3E0FFC35C
:100D6E009DEE94005010120DAFE004F070E3900071
:100D7E0003E004F080DBE9FF900003E4F0A3EFF062
:100D8E00900003E0FEA3E0FFD39400EE9400401029
:100D9E00120DAFE024FFF0900003E034FFF080E08E
:010DAE002222
:100F2500C2A1C2A2C2A3C2A5C293C292C291C294D7
:010F35002299
:080E5E0090003EE0FEA3E0FF5E
:040E6600AD07AC0622
:100E6A00D2A0E4FBEBC39408748094805021AE04B2
:100E7A00EDA803088005C333CE33CED8F930E70492
:100E8A00D2A48002C2A4C2A70000D2A70B80D5C2F6
:070E9A00A60000D2A6C2A0D1
:010EA100222E
:0B0F3600D2AFD2A8D288D2AAD28A2261
:03000300020800F0
:10080000C0E0C0F0C083C082C0D075D000C000C0BE
:0D08100001C002C003C004C005C006C0073F
:10081D0030B2030209397F057E00120DD630B203C6
:10082D0002092DE47B03FAF9F8900039E0FCA3E00E
:10083D00FDA3E0FEA3E0FF120990AC00AD01AE02F6
:10084D00AF03120A2E08680000000008C400000063
:10085D0001091C000000020000092D7FC7120EDDEA
:10086D007F31120EF6900039E0FCA3E0FDA3E0FE0F
:10087D00A3E02401FFE43EFEE43DFDE43CFC9000DA
:10088D0039120A2290003D7401F090003DE0FF33D3
:10089D0095E0FEC3EF9405EE648094804003020959
:1008AD002D7FAA7E00120D3E7FF47E01120DD69093
:1008BD00003DE004F080D37FC7120EDD7F32120EB3
:1008CD00F6900039E0FCA3E0FDA3E0FEA3E02401D7
:1008DD00FFE43EFEE43DFDE43CFC900039120A22AB
:1008ED0090003D7401F090003DE0FF3395E0FEC3B4
:1008FD00EF9405EE6480948050267FF47E01120DF6
:10090D00D67F551E120D3E90003DE004F080D77F3E
:10091D00C7120EDD7F33120EF67FF47E01120A68C8
:0C092D0030B2FD30B3FA9000007401F00D
:10093900D007D006D005D004D003D002D001D00012
:0B094900D0D0D082D083D0F0D0E032BC
:03001300020B6677
:100B6600C0E0C0F0C083C082C0D075D000C000C055
:100B760002C003C004C005C006C00720B3737F05CA
:080B86007E00120DD620B363BE
:100B8E00900046E4F0900046E0C394087480948090
:100B9E00500DC2A4C2A70000D2A7E004F080E6C2A6
:100BAE00A60000D2A6900039E0FCA3E0FDA3E0FE73
:100BBE00A3E02401FFE43EFEE43DFDE43CFC900096
:100BCE0039120A22900039E0FCA3E0FDA3E0FEA357
:100BDE00E02401FFE43EFEE43DFDE43CFC900039E0
:030BEE00120A22C6
:100BF10030B2FD30B3FAD007D006D005D004D0030F
:0F0C0100D002D000D0D0D082D083D0F0D0E0325B
:100EDD008F80EF139290C295C2977F017E00120D05
:090EED00D6D297120DD6C297224D
:100EF6008F80EF139290D295C2977F017E00120DDC
:090F0600D6D297120DD6C2972233
:100C1000C2967F38120EDD7F027E00120DD67F0F46
:100C2000120EDD7F027E00120DD67F06120EDD7FD2
:100C3000027E00120DD61F120EDD7F027E00120D05
:100C4000D67F80120EDDE490001EF090001EE0FFC3
:100C5000C3940F74809480501E74052FF582E43481
:100C600000F583E0FF120EF67F017E00120DD69094
:100C7000001EE004F080D47FC0120EDDE490001E60
:100C8000F090001EE0FFC3940674809480501E74A0
:100C9000162FF582E43400F583E0FF120EF67F0193
:100CA0007E00120DD690001EE004F080D47F30024A
:020CB0000EF63E
:03000000020CB23D
:0C0CB200787FE4F6D8FD758107020CF98C
:1009540075F008758200EF2FFFEE33FECD33CDCC5A
:1009640033CCC58233C5829BED9AEC99E5829840DD
:100974000CF582EE9BFEED9AFDEC99FC0FD5F0D6BA
:10098400E4CEFBE4CDFAE4CCF9A88222B800C1B9E4
:100994000059BA002DEC8BF084CFCECDFCE5F0CB22
:1009A400F97818EF2FFFEE33FEED33FDEC33FCEB5B
:1009B40033FB10D703994004EB99FB0FD8E5E4F916
:1009C400FA227818EF2FFFEE33FEED33FDEC33FC03
:1009D400C933C910D7059BE99A4007EC9BFCE99AF7
:1009E400F90FD8E0E4C9FAE4CCFB2275F010EF2F3C
:1009F400FFEE33FEED33FDCC33CCC833C810D7073C
:100A04009BEC9AE899400AED9BFDEC9AFCE899F876
:0E0A14000FD5F0DAE4CDFBE4CCFAE4C8F92209
:0C0A2200ECF0A3EDF0A3EEF0A3EFF02247
:100A2E00D083D082E4937012740193700DA3A393BC
:100A3E00F8740193F5828883E4737402936C7012D8
:100A4E007403936D700C7404936E70067405936F3B
:0A0A5E0060DDA3A3A3A3A3A380CA35
:100CBE00020E17E493A3F8E493A34003F68001F227
:100CCE0008DFF48029E493A3F85407240CC8C33337
:100CDE00C4540F4420C8834004F456800146F6DF06
:100CEE00E4800B0102040810204080900EA2E47EE6
:100CFE00019360BCA3FF543F30E509541FFEE493FB
:100D0E00A360010ECF54C025E060A840B8E493A3C1
:100D1E00FAE493A3F8E493A3C8C582C8CAC583CAEC
:100D2E00F0A3C8C582C8CAC583CADFE9DEE780BEA4
:010EDC000015
:00000001FF
