:1011650030313233343536373839414243444546D8
:101175004748494A4B4C4D4E4F5051525354555682
:051185005758595A0003
:1010FF004D000548656C6C6F20776F726C64210032
:10110F004A0012204C4544435542452000420001FD
:10111F0000FF4400200000000044003800000000E1
:09112F0041000000420003000031
:1011D400D2A01211F91212091211E8C290C2A0127F
:0411E4000F6080FB1D
:0B0DA700E0FCA3E0FDA3E0FEA3E0FFE2
:060DB20090008C120A1EE5
:100DB800E4900090F0900090E0FFC3942074809439
:100DC8008050477E007401A807088005C333CE33DE
:100DD800CED8F9FFEE3395E0FDFC90008CE0F8A347
:100DE800E0F9A3E0FAA3E05FFFEA5EFEE95DFDE853
:100DF8005C4D4E4F6004D2A48002C2A4C2A700007A
:100E0800D2A7900090E004F080ABC2A60000D2A662
:010E180022B7
:10101D00AB07900074120DA7EB6003D38001C39250
:10102D0094900078120DA7EBA2E7136003D3800113
:10103D00C3929190007C120DA7EBA2E713A2E713C8
:10104D006003D38001C39292900080120DA7AF036D
:10105D007803EFA2E713D8FB6003D38001C392930B
:01106D002260
:100E8900D2A1D2A2D2A3D2A5120EB0C2A1C2A2C22D
:100E9900A3C2A590001CE0FF900003E0FCA3E0FDC5
:070EA900C3EF9DFFE49CFE76
:100EB000D2A0D290E4FBFAC3EB9FEA9E50147C00D0
:100EC0007D32ED1D70011CED4C70F70BBB00010A6B
:100ED00080E5C290C2A0E4FAFBC3EB9FEA9E5014E7
:100EE0007C007D32ED1D70011CED4C70F70BBB00DA
:040EF000010A80E58E
:010EF40022DB
:10118A00C3EE940040197D6EC37480948040099028
:0F119A00001EE004F01D80F0EF1F70E41E80E1E6
:0111A9002223
:10113900D2A4E4F9E9FF3395E0FEC3EF9420EE640D
:101149008094805010C2A70000D2A77F027E0012AF
:0B1159000EB00980DFC2A60000D2A685
:011164002268
:100F600012113990001C7414F0E4900003F0A3F007
:100F700090001CE0F9FD900003E0FEA3E0FFC39D9C
:100F8000EE94005010120E89E004F070E39000031C
:100F9000E004F080DBE9FF900003E4F0A3EFF090C1
:100FA0000003E0FEA3E0FFD39400EE940040101293
:100FB0000E89E024FFF0900003E034FFF080E0228F
:1011E800C2A1C2A2C2A3C2A5C293C292C291C29412
:0111F80022D4
:0410BF00AD07AC06C7
:1010C300E4FBEBC39408748094805025AE04EDA830
:1010D30003088005C333CE33CED8F930E704D2A456
:1010E3008002C2A4C2A790001EE004F0D2A70B8026
:0B10F300D1C2A690001EE004F0D2A6BF
:0110FE0022CF
:0B120900D2AFD2A8D288D2AAD28A228B
:1011F900E4F589758CE3758A07D28CD2A9D2AF221E
:03000300020E19D1
:100E1900C0E0C0F0C083C082C0D075D000C000C09F
:100E290002C003C004C005C006C007900000E070FE
:100E39003620B2337F05FE120EB020B2247FFF1296
:100E490010BF900038E0FCA3E0FDA3E0FEA3E0247E
:100E590001FFE43EFEE43DFDE43CFC900038120A4B
:100E69001E30B2FD30B3FAD007D006D005D004D079
:100E790003D002D000D0D0D082D083D0F0D0E032DD
:03001300020EF5E5
:100EF500C0E0C0F0C083C082C0D075D000C000C0C3
:100F050002C003C004C005C006C00720B3347F0576
:100F15007E00120EB020B3247FFF1210BF90003860
:100F2500E0FCA3E0FDA3E0FEA3E02401FFE43EFE18
:100F3500E43DFDE43CFC900038120A1E30B2FD3061
:100F4500B3FAD007D006D005D004D003D002D00024
:0B0F5500D0D0D082D083D0F0D0E032AA
:03000B0002106E72
:10106E00C0E0C0F0C083C082C0D075D000C000C048
:10107E0004C005C006C007758CE3758A0790002072
:10108E00E0FCA3E0FDA3E0FEA3E02401FFE43EFEAE
:10109E00E43DFDE43CFC900020120A1ED007D00671
:1010AE00D005D004D000D0D0D082D083D0F0D0E004
:0110BE0032FF
:1011AA008F80C295C2977F0A7E00120EB0D2971224
:0511BA000EB0C29722F7
:1011BF008F80D295C2977F0A7E00120EB0D29712FF
:0511CF000EB0C29722E2
:100C6E00C2967F381211AA7F147E00120EB07F0F2B
:100C7E001211AA7F147E00120EB07F061211AA7FE7
:100C8E00147E00120EB07F011211AA7F147E001284
:100C9E000EB07F801211AA7F147E00120EB0E49067
:100CAE00001DF090001DE0FFC3940E7480948050E0
:100CBE001E74052FF582E43400F583E0FF1211BF98
:100CCE007F147E00120EB090001DE004F080D47FE1
:100CDE00C01211AA7F327E00120EB0E490001DF0F9
:100CEE0090001DE0FFC3940E74809480501E741209
:100CFE002FF582E43400F583E0FF1211BF7F287ECA
:0D0D0E0000120EB090001DE004F080D42211
:060FC000900084120A1EDD
:100FC600900020E0FCA3E0FDA3E0FEA3E0FF90007C
:100FD60088120A1E900084E0FCA3E0FDA3E0FEA3B5
:100FE600E0FFA3E0F8A3E0F9A3E0FAA3E02FFFEA0D
:100FF6003EFEE93DFDE83CFC900020E0F8A3E0F968
:10100600A3E0FAA3E0FBC3120A0D40C89000201229
:061016000A2A00000000A0
:01101C0022B1
:100A5B0090003C120A1E900040EBF0A3EAF0A3E9D1
:010A6B00F09A
:100A6C0078467C007D017BFF7A1179657E007F25BD
:100A7C001208D0E490006DF0A3F0900043E07004F5
:100A8C00A3E0640A7052FFFEFDFC90003CE0F8A36A
:100A9C00E0F9A3E0FAA3E0FBC3120A0D503A900070
:100AAC003CE0FCA3E0FDA3E0FEA3E0FF1209FF90F5
:100ABC00006BEEF0A3EFF0900040E0FBA3E0FAA394
:100ACC00E0F990006DE475F0011209E985F082F50A
:100ADC0083742D12093C801190003CA3A3E0FFA36A
:100AEC00E090006BCFF0A3EFF0900043E0FEA3E0AA
:100AFC00FDAC0690006BE0FEA3E0FF12095E7446AD
:100B0C002DF58274003CF583E0FF900040E0FBA3E0
:100B1C00E0FAA3E0F990006DE475F0011209E985A3
:100B2C00F082F583EF12093C90006BE0FEA3E0FF2E
:100B3C00900043E0FCA3E0FD12095E90006BEEF028
:100B4C00A3EFF04E70A3900040E0FBA3E0FAA3E00B
:100B5C00F990006DE0FEA3E0F5828E83E412093C6F
:100B6C001208F6B42D0A900071E4F0A304F080078B
:100B7C00E4900071F0A3F0900071E0FFA3E090000E
:100B8C006FCFF0A3EFF090006EE024FFFF90006DAC
:100B9C00E034FFFE7C007D021209B3D3900070E0BC
:100BAC009FEE6480F890006FE06480984003020C24
:100BBC0062900040E0FBA3E0FAA3E0F990006FE044
:100BCC00FEA3E0F5828E8312090F900045F0900091
:100BDC006EE024FFFF90006DE034FFFE900072E0A9
:100BEC002FFF900071E03EFE90006FE0FCA3E0FD53
:100BFC00C3EF9DFFEE9C8F82F58312090F8D828CC3
:100C0C008312093C900045E0FF90006EE024FFFD4C
:100C1C0090006DE034FFFC900072E02DFD900071AF
:100C2C00E03CFC90006FE0FAA3E0FBC3ED9BFDEC15
:100C3C009AFC900040E0FBA3E0FAA3E0F98D828CD3
:100C4C0083EF12093C900070E004F0700690006F86
:100C5C00E004F0020B92900040E0FBA3E0FAA3E06A
:010C6C00F98E
:010C6D002264
:03000000020D1BD3
:0C0D1B00787FE4F6D8FD758107020D62B8
:10080000E709F608DFFA8046E709F208DFFA803EDA
:1008100088828C83E709F0A3DFFA8032E309F608C7
:10082000DFFA8078E309F208DFFA807088828C832F
:10083000E309F0A3DFFA806489828A83E0A3F608E3
:10084000DFFA805889828A83E0A3F208DFFA804CBD
:1008500080D280FA80C680D4806980F28033801094
:1008600080A680EA809A80A880DA80E280CA8033FD
:1008700089828A83ECFAE493A3C8C582C8CCC58375
:10088000CCF0A3C8C582C8CCC583CCDFE9DEE78045
:100890000D89828A83E493A3F608DFF9ECFAA9F0C4
:1008A000EDFB2289828A83ECFAE0A3C8C582C8CC1A
:1008B000C583CCF0A3C8C582C8CCC583CCDFEADE33
:1008C000E880DB89828A83E493A3F208DFF980CC95
:1008D00088F0EF60010E4E60C388F0ED2402B4048E
:1008E0000050B9F582EB2402B4040050AF23234535
:0608F00082239008507302
:1008F600BB010689828A83E0225002E722BBFE0200
:09090600E32289828A83E4932232
:10090F00BB010CE58229F582E5833AF583E022509D
:10091F0006E92582F8E622BBFE06E92582F8E222E7
:0D092F00E58229F582E5833AF583E4932201
:10093C00F8BB010DE58229F582E5833AF583E8F0F1
:10094C00225006E92582C8F622BBFE05E92582C89D
:02095C00F22285
:10095E00BC000BBE0029EF8DF084FFADF022E4CC7D
:10096E00F875F008EF2FFFEE33FEEC33FCEE9DEC46
:10097E00984005FCEE9DFE0FD5F0E9E4CEFD22ED8C
:10098E00F8F5F0EE8420D21CFEADF075F008EF2FD6
:10099E00FFED33FD4007985006D5F0F222C398FDC7
:0509AE000FD5F0EA2264
:1009B300C2D5EC30E709B2D5E4C39DFDE49CFCEE5F
:1009C30030E715B2D5E4C39FFFE49EFE12095EC370
:1009D300E49DFDE49CFC800312095E30D507C3E46B
:0609E3009FFFE49EFE22CE
:1009E900A3F8E0C5F025F0F0E582158270021583C1
:0609F900E0C838F0E8221E
:0E09FF00C3E49FFFE49EFEE49DFDE49CFC2209
:100A0D00EB9FF5F0EA9E42F0E99D42F0E89C45F03F
:010A1D0022B6
:0C0A1E00ECF0A3EDF0A3EEF0A3EFF0224B
:100A2A00A8828583F0D083D082120A41120A411229
:100A3A000A41120A41E473E493A3C583C5F0C5834E
:100A4A00C8C582C8F0A3C583C5F0C583C8C582C816
:010A5A002279
:100D27000211D4E493A3F8E493A34003F68001F2FD
:100D370008DFF48029E493A3F85407240CC8C333CD
:100D4700C4540F4420C8834004F456800146F6DF9C
:100D5700E4800B01020408102040809010FFE47E1D
:100D6700019360BCA3FF543F30E509541FFEE49391
:100D7700A360010ECF54C025E060A840B8E493A358
:100D8700FAE493A3F8E493A3C8C582C8CAC583CA83
:100D9700F0A3C8C582C8CAC583CADFE9DEE780BE3B
:0111380000B6
:00000001FF
