:070AD900020F0000010EFFF7
:0F0ACA00120ABAAF0E120A4FAF0E120A4F80F483
:100A8D008F12AF0E120A4FAF0E120A4FAF12EF3385
:100A9D0095E0FE120A10D2B7AF12EF3395E0FEC308
:0D0AAD0074649FFFE49EFE120A10C2B7227F
:040A10008E0A8F0BB0
:100A1400850F0C85100DE50D250BFFE50C350AFE41
:100A2400EFB51009EEB50F05E47F018002E4FFFE87
:100A3400FDFCE47B607AEAF9F81209CCAC00AD0164
:0A0A4400AE02AF03EC4D4E4F60CC44
:010A4E002285
:020A4F008F080E
:100A5100E4F509C3E5099408748094805027AF092F
:100A6100A807E508088002C333D8FC30E704D2B4F4
:100A71008002C2B4C2B60000D2B67F147E00120A50
:0B0A810010050980CEC2B50000D2B500
:010A8C002247
:100ABA00758901D28C758CFF758A9AD2A9D2AF2218
:03000B0002097077
:10097000C0E0C0F0C083C082C0D075D000C000C04D
:1009800001C002C003C004C005C006C007758CFFCB
:10099000758A9A0510E5107002050FAE0FFFE4FC92
:1009A000FD7B607AEAF9F8C31208007004F50FF5D0
:1009B00010D007D006D005D004D003D002D001D08B
:0C09C00000D0D0D082D083D0F0D0E03244
:030000000208E40F
:0C08E400787FE4F6D8FD75811202092B24
:1009CC00C2D5E830E70FB2D5E4C39BFBE49AFAE456
:1009DC0099F9E498F8EC30E717B2D5120A0212082C
:1009EC0052E4C39BFBE49AFAE499F9E498F8800387
:1009FC0012085230D50DE4C39FFFE49EFEE49DFD2A
:040A0C00E49CFC2248
:10080000EB9FF5F0EA9E42F0E99D42F0EC6480C86F
:0608100064809845F0220F
:1008F000020ACAE493A3F8E493A34003F68001F24A
:1009000008DFF48029E493A3F85407240CC8C33308
:10091000C4540F4420C8834004F456800146F6DFD7
:10092000E4800B0102040810204080900AD9E47E84
:10093000019360BCA3FF543F30E509541FFEE493CC
:10094000A360010ECF54C025E060A840B8E493A393
:10095000FAE493A3F8E493A3C8C582C8CAC583CABE
:10096000F0A3C8C582C8CAC583CADFE9DEE780BE76
:010AE0000015
:1008160075F008758200EF2FFFEE33FECD33CDCC99
:1008260033CCC58233C5829BED9AEC99E58298401C
:100836000CF582EE9BFEED9AFDEC99FC0FD5F0D6F9
:10084600E4CEFBE4CDFAE4CCF9A88222B800C1B923
:100856000059BA002DEC8BF084CFCECDFCE5F0CB61
:10086600F97818EF2FFFEE33FEED33FDEC33FCEB9A
:1008760033FB10D703994004EB99FB0FD8E5E4F955
:10088600FA227818EF2FFFEE33FEED33FDEC33FC42
:10089600C933C910D7059BE99A4007EC9BFCE99A36
:1008A600F90FD8E0E4C9FAE4CCFB2275F010EF2F7B
:1008B600FFEE33FEED33FDCC33CCC833C810D7077B
:1008C6009BEC9AE899400AED9BFDEC9AFCE899F8B6
:0E08D6000FD5F0DAE4CDFBE4CCFAE4C8F92249
:00000001FF
