:100CBD004D000548656C6C6F20776F726C64210078
:100CCD004A0012204C454443554245200042000144
:100CDD0000FF440020000000004400380000000028
:090CED0041000000420003000078
:100CF700D2A0120D5B120D4AC2A07F557E557D55BD
:100D07007C55120B1E7FAA7EAA7DAA7CAA120B1EF7
:020D170080E872
:060B1E00900040120D2CB6
:100B2400900040E0FCA3E0FDA3E0FEA3E0FFE4AB03
:100B340007FA900040A3A3A3E07808120D19E4A3D8
:100B4400F0A3EFF0900040E0FCA3E0FDA3E0FEA3DF
:100B5400E0FF7810120D19E4900046F0A3EFF09036
:100B64000040E0FCA3E0FDA3E0FEA3E0FF78181240
:100B74000D19E4900048F0A3EFF07E00AF03120CCF
:100B840081900044120C7C900046120C7C9000482A
:080B9400E0FEA3E0FF020C816A
:100C0D00D2A1D2A2D2A3D2A5120C34C2A1C2A2C229
:100C1D00A3C2A590001CE0FF900003E0FCA3E0FD43
:070C2D00C3EF9DFFE49CFEF4
:100C3400D2A0D290E4FBFAC3EB9FEA9E50147C004E
:100C44007D32ED1D70011CED4C70F70BBB00010AE9
:100C540080E5C290C2A0E4FAFBC3EB9FEA9E501465
:100C64007C007D32ED1D70011CED4C70F70BBB0058
:040C7400010A80E50C
:010C78002259
:1008FB007F01120D38E490004AF090004AE0FFC3EC
:10090B0094207480948050237E007401A807088083
:10091B0005C333CE33CED8F9FF120C817FF47E01A1
:10092B00120C3490004AE004F080CF7F02120D3895
:10093B00E490004AF090004AE0FFC3942074809446
:10094B008050237E007401A807088005C333CE3383
:10095B00CED8F9FF120C817FF47E01120C3490007B
:10096B004AE004F080CF7F04120D38E490004AF087
:10097B0090004AE0FFC394207480948050237E0043
:10098B007401A807088005C333CE33CED8F9FF1204
:10099B000C817FF47E01120C3490004AE004F0804D
:1009AB00CF7F08120D38E490004AF090004AE0FF28
:1009BB00C394207480948050237E007401A8070890
:1009CB008005C333CE33CED8F9FF120C817FF47E72
:0C09DB0001120C3490004AE004F080CFC0
:0109E70022ED
:100D3800EF139294EFA2E19291A2E29292A2E3922F
:020D48009322F4
:100B9C0090003DEEF0A3EFF0120C81120C79120CC8
:100BAC0079120C7990001C7414F0E4900003F0A3FB
:100BBC00F090001CE0F9FD900003E0FEA3E0FFC301
:100BCC009DEE94005010120C0DE004F070E39000B8
:100BDC0003E004F080DBE9FF900003E4F0A3EFF006
:100BEC00900003E0FEA3E0FFD39400EE94004010CD
:100BFC00120C0DE024FFF0900003E034FFF080E0D5
:010C0C0022C5
:100D4A00C2A1C2A2C2A3C2A5C293C292C291C294B4
:010D5A002276
:080C790090003DE0FEA3E0FF46
:040C8100AD07AC0609
:100C8500D2A0E4FBEBC39408748094805021AE0499
:100C9500EDA803088005C333CE33CED8F930E70479
:100CA500D2A48002C2A4C2A70000D2A70B80D5C2DD
:070CB500A60000D2A6C2A0B8
:010CBC002215
:0B0D5B00D2AFD2A8D288D2AAD28A223E
:03000300020800F0
:10080000C0E0C0F0C083C082C0D075D000C000C0BE
:0D08100001C002C003C004C005C006C0073F
:10081D0030B2030208E07F057E00120C3430B203C3
:10082D000208DA900038A3A3A3E05401FFEF604F54
:10083D00900038E0FCA3E0FDA3E0FEA3E02401FF5F
:10084D00E43EFEE43DFDE43CFC900038120D2C909E
:10085D00003C7401F090003CE0FF3395E0FEC3EFE7
:10086D009405EE6480948050647FAA7E00120B9CE8
:10087D007FF47E01120C3490003CE004F080D690A1
:10088D000038E0FCA3E0FDA3E0FEA3E02401FFE4BB
:10089D003EFEE43DFDE43CFC900038120D2C900032
:1008AD003C7401F090003CE0FF3395E0FEC3EF9403
:1008BD0005EE6480948050157FF47E01120C347F18
:1008CD00551E120B9C90003CE004F080D730B2FD19
:0308DD0030B3FA3B
:1008E000D007D006D005D004D003D002D001D0006C
:0B08F000D0D0D082D083D0F0D0E03216
:030013000209E8F7
:1009E800C0E0C0F0C083C082C0D075D000C000C0D5
:1009F80002C003C004C005C006C00720B3737F054A
:080A08007E00120C3420B363E0
:100A100090003FE4F090003FE0C39408748094801D
:100A2000500DC2A4C2A70000D2A7E004F080E6C225
:100A3000A60000D2A6900038E0FCA3E0FDA3E0FEF3
:100A4000A3E02401FFE43EFEE43DFDE43CFC900015
:100A500038120D2C900038E0FCA3E0FDA3E0FEA3CB
:100A6000E02401FFE43EFEE43DFDE43CFC90003860
:030A7000120D2C38
:100A730030B2FD30B3FAD007D006D005D004D0038E
:0F0A8300D002D000D0D0D082D083D0F0D0E032DB
:03000000020A925F
:0C0A9200787FE4F6D8FD758107020AD9D0
:100D1900E8600FECC313FCED13FDEE13FEEF13FFB8
:030D2900D8F122DC
:0C0D2C00ECF0A3EDF0A3EEF0A3EFF0223A
:100A9E00020CF7E493A3F8E493A34003F68001F26B
:100AAE0008DFF48029E493A3F85407240CC8C33359
:100ABE00C4540F4420C8834004F456800146F6DF28
:100ACE00E4800B0102040810204080900CBDE47EEF
:100ADE00019360BCA3FF543F30E509541FFEE4931D
:100AEE00A360010ECF54C025E060A840B8E493A3E4
:100AFE00FAE493A3F8E493A3C8C582C8CAC583CA0F
:100B0E00F0A3C8C582C8CAC583CADFE9DEE780BEC6
:010CF60000FD
:00000001FF
