:100C4E004D000548656C6C6F20776F726C642100E7
:100C5E004A0012204C4544435542452000420001B3
:100C6E0000FF440020000000004400380000000097
:090C7E00410000004200030000E7
:100C9E00D2A0120CCE120CB1C2A07FF47E011208AB
:030CAE000080F7CC
:100B9E00D2A1D2A2D2A3D2A5120BC5C2A1C2A2C209
:100BAE00A3C2A590001CE0FF900003E0FCA3E0FDB3
:070BBE00C3EF9DFFE49CFE64
:100BC500D2A0D290E4FBFAC3EB9FEA9E50147C00BE
:100BD5007D32ED1D70011CED4C70F70BBB00010A59
:100BE50080E5C290C2A0E4FAFBC3EB9FEA9E5014D5
:100BF5007C007D32ED1D70011CED4C70F70BBB00C8
:040C0500010A80E57B
:010C090022C8
:08080000900040EEF0A3EFF0C0
:10080800900046E4F0A304F0900046E0FEA3E0FF69
:10081800C39410EE940040030208FB120C88900069
:1008280042E4F0A304F0900042E0FEA3E0FFC3948A
:1008380008EE940050657E007401A807088005C37F
:1008480033CE33CED8F9FF120C12900040E0FEA34D
:10085800E0FF120BC5900044E4F0A304F0E4FFFEAF
:10086800120C12900040E0FEA3E0FF120BC59000AE
:1008780045E004F07006900044E004F0C3900045A1
:10088800E09404900044E0940040D2900043E004D7
:10089800F07093900042E004F0808B7F017E00129C
:1008A8000C12900040E0FEA3E0FF120BC59000443C
:1008B800E4F0A304F0E4FFFE120C12900040E0FE06
:1008C800A3E0FF120BC5900045E004F0700690000D
:1008D80044E004F0C3900045E09404900044E094A0
:1008E8000040D2900047E025E0F0900046E033F069
:0308F800020810E3
:0108FB0022DA
:100C8800EF13B39294EFA2E1B39291A2E2B39292DE
:060C9800A2E3B3929322D7
:100B2D0090003DEEF0A3EFF0120C12120C0A120C15
:100B3D000A120C0A90001C7414F0E4900003F0A348
:100B4D00F090001CE0F9FD900003E0FEA3E0FFC370
:100B5D009DEE94005010120B9EE004F070E3900097
:100B6D0003E004F080DBE9FF900003E4F0A3EFF075
:100B7D00900003E0FEA3E0FFD39400EE940040103C
:100B8D00120B9EE024FFF0900003E034FFF080E0B4
:010B9D002235
:100CB100C2A1C2A2C2A3C2A5C293C292C291C2944E
:010CC1002210
:080C0A0090003DE0FEA3E0FFB5
:040C1200AD07AC0678
:100C1600D2A0E4FBEBC39408748094805021AE0408
:100C2600EDA803088005C333CE33CED8F930E704E8
:100C3600D2A48002C2A4C2A70000D2A70B80D5C24C
:070C4600A60000D2A6C2A027
:010C4D002284
:0B0CCE00D2AFD2A8D288D2AAD28A22CC
:030003000208FCF4
:1008FC00C0E0C0F0C083C082C0D075D000C000C0C2
:0D090C0001C002C003C004C005C006C00742
:1009190030B2030209DC7F057E00120BC530B20339
:100929000209D6900038A3A3A3E05401FFEF604F5A
:10093900900038E0FCA3E0FDA3E0FEA3E02401FF62
:10094900E43EFEE43DFDE43CFC900038120CC2900C
:10095900003C7401F090003CE0FF3395E0FEC3EFEA
:100969009405EE6480948050647FAA7E00120B2D5A
:100979007FF47E01120BC590003CE004F080D69014
:100989000038E0FCA3E0FDA3E0FEA3E02401FFE4BE
:100999003EFEE43DFDE43CFC900038120CC29000A0
:1009A9003C7401F090003CE0FF3395E0FEC3EF9406
:1009B90005EE6480948050157FF47E01120BC57F8B
:1009C900551E120B2D90003CE004F080D730B2FD8B
:0309D90030B3FA3E
:1009DC00D007D006D005D004D003D002D001D0006F
:0B09EC00D0D0D082D083D0F0D0E03219
:030013000209F7E8
:1009F700C0E0C0F0C083C082C0D075D000C000C0C6
:100A070002C003C004C005C006C00720B3737F053A
:080A17007E00120BC520B36341
:100A1F0090003FE4F090003FE0C39408748094800E
:100A2F00500DC2A4C2A70000D2A7E004F080E6C216
:100A3F00A60000D2A6900038E0FCA3E0FDA3E0FEE4
:100A4F00A3E02401FFE43EFEE43DFDE43CFC900006
:100A5F0038120CC2900038E0FCA3E0FDA3E0FEA327
:100A6F00E02401FFE43EFEE43DFDE43CFC90003851
:030A7F00120CC294
:100A820030B2FD30B3FAD007D006D005D004D0037F
:0F0A9200D002D000D0D0D082D083D0F0D0E032CC
:03000000020AA150
:0C0AA100787FE4F6D8FD758107020AE8B2
:0C0CC200ECF0A3EDF0A3EEF0A3EFF022A5
:100AAD00020C9EE493A3F8E493A34003F68001F2B5
:100ABD0008DFF48029E493A3F85407240CC8C3334A
:100ACD00C4540F4420C8834004F456800146F6DF19
:100ADD00E4800B0102040810204080900C4EE47E4F
:100AED00019360BCA3FF543F30E509541FFEE4930E
:100AFD00A360010ECF54C025E060A840B8E493A3D5
:100B0D00FAE493A3F8E493A3C8C582C8CAC583CAFF
:100B1D00F0A3C8C582C8CAC583CADFE9DEE780BEB7
:010C8700006C
:00000001FF
