:100FD000410018004100190044001A0000000041BF
:100FE000001E144700114D4F44454C200051000095
:100FF0005A68656E6765722E4C45444355424943B5
:0110000000EF
:100EF700D2A0121082120C60121071121043C2A0FD
:100F07007F557E00120E5D7F557E00120E5D7F5568
:100F17007E00120E5D7F557E00120E5D7FAA7E0059
:100F2700120E5D7FAA7E00120E5D7FAA7E00120E52
:0A0F37005D7FAA7E00120E5D80C6E9
:0B108200D2AFD2A8D288D2AAD28A2214
:100C6000C2967F3812102A7F027E00120F497F0F32
:100C700012102A7F027E00120F497F0612102A7F6F
:100C8000027E00120F497F0112102A7F027E00129D
:100C90000F497F8012102AE4900031F0900031E07B
:100CA000FFC3941074809480501E74002FF582E46A
:100CB0003400F583E0FF1210117F017E00120F490E
:100CC000900031E004F080D47FC012102AE490003C
:100CD00031F0900031E0FFC3940674809480501E80
:100CE00074112FF582E43400F583E0FF1210117FB8
:100CF000017E00120F49900031E004F080D47F3073
:030D0000021011CD
:10107100C2A1C2A2C2A3C2A5C293C292C291C2948A
:01108100224C
:10104300758920758DFD758BFDD28EC29FD29ED280
:081053009CD2AFD2ACD2BC224A
:080F4100900029E0FEA3E0FF8F
:100F4900D2A0E4FBFAC3EB9FEA9E50147C007D32E9
:100F5900ED1D70011CED4C70F70BBB00010A80E51B
:100F6900C2A0E4FAFBC3EB9FEA9E50147C007D32D9
:100F7900ED1D70011CED4C70F70BBB00010A80E5FB
:010F89002245
:10102A008F80EF139290C295C2977F017E00120FB4
:09103A0049D297120F49C2972216
:0F1002007401900018F07FC612102AE02430FF0E
:101011008F80EF139290D295C2977F017E00120FBD
:0910210049D297120F49C297222F
:080AAF00900029EEF0A3EFF026
:100AB70090002FE4F0A304F090002FE0FEA3E0FFE6
:100AC700C39410EE94004003020B8A12105B90004F
:100AD7002BE4F0A304F090002BE0FEA3E0FFC39407
:100AE70008EE940050557E007401A807088005C3DE
:100AF70033CE33CED8F9FF120E5D120F4190002D81
:100B0700E4F0A304F0E4FFFE120E5D120F41900023
:100B17002EE004F0700690002DE004F0C390002E44
:100B2700E0940490002DE0940040DA90002CE0045B
:100B3700F070A390002BE004F0809B7F017E0012F1
:100B47000E5D120F4190002DE4F0A304F0E4FFFEC8
:100B5700120E5D120F4190002EE004F07006900017
:100B67002DE004F0C390002EE0940490002DE09453
:100B77000040DA900030E025E0F090002FE033F0FD
:100B8700020ABFE4FFFE120E5DE4FFFE120E5DE4F3
:0E0B9700FFFE120E5DE4FFFE120E5D021071F5
:10105B00EF13B39294EFA2E1B39291A2E2B3929207
:06106B00A2E3B392932200
:0A0D03007FF47E01120F497F551E98
:080D0D00900029EEF0A3EFF0C5
:100D1500120E5D900029E0FEA3E0FF120E5D90002B
:100D250029E0FEA3E0FF120E5D900029E0FEA3E09E
:100D3500FF120E5DE4F990001EE0FFE9C39F502409
:100D4500D2A1D2A2D2A3D2A5E9FF7E00120F49C239
:100D5500A1C2A2C2A3C2A5E0C39FFFE49EFE120FDB
:100D6500490980D290001EE0F9E9D394007480947B
:100D7500804027D2A1D2A2D2A3D2A5E9FF7E00123C
:100D85000F49C2A1C2A2C2A3C2A590001EE0C39F83
:0A0D9500FFE49EFE120F491980CF03
:010D9F002231
:100E2C007F557E00120E5D7E00120E5D7E00120E4E
:100E3C005D7E00120E5DE0FEA3E0FF120F497FAA5B
:100E4C007E00120E5D7E00120E5D7E00120E5D7E27
:010E5C000095
:040E5D00AD07AC062B
:100E6100D2A0E4FBEBC39408748094805021AE04BB
:100E7100EDA803088005C333CE33CED8F930E7049B
:100E8100D2A48002C2A4C2A70000D2A70B80D5C2FF
:070E9100A60000D2A6C2A0DA
:010E98002237
:100BA500E490002BF0A3F0900029E4F0A304F0906A
:100BB500001EE0FFC390002AE09F900029E094000A
:100BC5005027120E2C90001EE0FF900029E0FCA398
:100BD500E0FDC3EF9DFFE49CFE120F49E004F070B9
:100BE500CE900029E004F080C67F647E00120F4994
:100BF50090001EE0FF900029EEF0A3EFF0D39000E7
:100C05002AE09400900029E094004027120E2C90D1
:100C1500001EE0FF900029E0FCA3E0FDC3EF9DFF6F
:100C2500E49CFE120F49E024FFF0900029E034FF18
:100C3500F080CA7F647E00120F4990002CE004F01A
:100C4500700690002BE004F0C390002CE094059012
:0A0C5500002BE094005003020BACEA
:010C5F002272
:03000300020E9951
:100E9900C0E0C083C082C0D075D000C002C003C00A
:100EA90004C005C006C00720B22F7F057E00120FBF
:100EB90049D293D292D291D29420B20FC2AC90006F
:100EC90018E0F5993099FDC299D2AC30B2FD30B332
:100ED900FAC293C292C291C294D007D006D005D06B
:0E0EE90004D003D002D0D0D082D083D0E0322B
:03001300020800E0
:10080000C0E0C0F0C083C082C0D075D000C000C0BE
:0D08100001C002C003C004C005C006C0073F
:10081D0030B3030209707F057E00120F4930B30318
:10082D0002096090001AA3A3A3E05403FFE4FEFDA8
:10083D00FC120F96085D0000000008AB00000001DF
:10084D0008ED00000002091D00000003000009472B
:10085D0012100290001AE0FCA3E0FDA3E0FEA3E05D
:10086D002401FFE43EFEE43DFDE43CFC90001A1241
:10087D000F8A90001F7401F090001FE0C39405745F
:10088D0080948040030209477FAA7E00120D0D7FE0
:10089D00F47E01120F4990001FE004F080DA74021B
:1008AD0012100490001AE0FCA3E0FDA3E0FEA3E00B
:1008BD002401FFE43EFEE43DFDE43CFC90001A12F1
:1008CD000F8A90001F7401F090001FE0C39405740F
:1008DD008094805065120D0390001FE004F080E8B5
:1008ED00900018740312100790001AE0FCA3E0FDAD
:1008FD00A3E0FEA3E02401FFE43EFEE43DFDE43C65
:10090D00FC90001A120F8A7F2C7E01120AAF802AEA
:10091D00900018740412100790001AE0FCA3E0FD7B
:10092D00A3E0FEA3E02401FFE43EFEE43DFDE43C34
:10093D00FC90001A120F8A120BA590001AE0FCA36E
:10094D00E0FDA3E0FEA3E05403FFEF04F599309919
:10095D00FDC29930B2FD30B3FA7FC612102A7F3036
:03096D0012101154
:10097000D007D006D005D004D003D002D001D000DB
:0B098000D0D0D082D083D0F0D0E03285
:0300230002098B44
:10098B00C0E0C0F0C083C082C0D075D000C000C032
:0D099B0001C002C003C004C005C006C007B3
:1009A800209803020A94900018E599F0C298E0751F
:1009B800F00584E5F0146028146070147003020ACE
:1009C80078147003020A8924046003020A949000D0
:1009D80018E41210077F55120E4C120E4A020A94A0
:1009E80012100290001AE0FCA3E0FDA3E0FEA3E0D1
:1009F8002401FFE43EFEE43DFDE43CFC90001A12B5
:100A08000F8A9000287401F0900028E0C3940574C0
:100A180080948050777FAA7E00120D0D7FF47E01AE
:100A2800120F49900028E004F080DD90001874024D
:100A380012100790001AE0FCA3E0FDA3E0FEA3E07B
:100A48002401FFE43EFEE43DFDE43CFC90001A1264
:100A58000F8A9000287401F0900028E0C394057470
:100A68008094805027120D03900028E004F080E85D
:100A780090001874031210077F2C7E01120AAF80B1
:0C0A88000B9000187404121007120BA54C
:100A9400D007D006D005D004D003D002D001D000B6
:0B0AA400D0D0D082D083D0F0D0E03260
:03000000020DA04E
:0C0DA000787FE4F6D8FD758107020DE7AE
:0C0F8A00ECF0A3EDF0A3EEF0A3EFF022DA
:100F9600D083D082E4937012740193700DA3A3934F
:100FA600F8740193F5828883E4737402936C70126B
:100FB6007403936D700C7404936E70067405936FCE
:0A0FC60060DDA3A3A3A3A3A380CAC8
:100DAC00020EF7E493A3F8E493A34003F68001F258
:100DBC0008DFF48029E493A3F85407240CC8C33348
:100DCC00C4540F4420C8834004F456800146F6DF17
:100DDC00E4800B0102040810204080900FD0E47EC8
:100DEC00019360BCA3FF543F30E509541FFEE4930C
:100DFC00A360010ECF54C025E060A840B8E493A3D3
:100E0C00FAE493A3F8E493A3C8C582C8CAC583CAFD
:100E1C00F0A3C8C582C8CAC583CADFE9DEE780BEB5
:0110010000EE
:00000001FF
