:070B2000010CFF020D0000B3
:100B0000120B10120B28C2A1C2A2C2A3C2A580FE62
:020A5F008F0FF7
:100A6100E4F510C3E5109408748094805027AF100A
:100A7100A807E50F088002C333D8FC30E704D2A4ED
:100A81008002C2A4C2A60000D2A67F027E00120A82
:100A9100E1051080CEC2A77F017E00120AE1D2A734
:010AA1002232
:070B2800D2AFD2A8D288224F
:100B1000758901D28C758CFF758A9AD2A9D2AF22C1
:030003000209CC23
:1009CC00C0E0C0F0C083C082C0D075D000C000C0F1
:1009DC0001C002C003C004C005C006C00730B2038A
:1009EC0020B31130B20320B305AF0C120A5F30B242
:1009FC00FD30B3FAD007D006D005D004D003D00216
:0F0A0C00D001D000D0D0D082D083D0F0D0E03253
:03000B0002097077
:10097000C0E0C0F0C083C082C0D075D000C000C04D
:1009800001C002C003C004C005C006C007758CFFCB
:10099000758A9A050EE50E7002050DAE0DFFE4FC9A
:1009A000FD7B607AEAF9F8C31208007004F50DF5D2
:1009B0000ED007D006D005D004D003D002D001D08D
:0C09C00000D0D0D082D083D0F0D0E03244
:040AA2008E088F0922
:100AA600850D0A850E0BE50B2509FFE50A3508FEBF
:100AB600EFB50E09EEB50D05E47F018002E4FFFEF9
:100AC600FDFCE47B607AEAF9F8120A1BAC00AD0182
:0A0AD600AE02AF03EC4D4E4F60CCB2
:010AE00022F3
:100AE100D3EF9400EE940040157D6E7C0000ED1D67
:0E0AF10070011CED4C70F6EF1F70E51E80E2E8
:010AFF0022D4
:030000000208E40F
:0C08E400787FE4F6D8FD75811002092B26
:100A1B00C2D5E830E70FB2D5E4C39BFBE49AFAE406
:100A2B0099F9E498F8EC30E717B2D5120A5112088D
:100A3B0052E4C39BFBE49AFAE499F9E498F8800337
:100A4B0012085230D50DE4C39FFFE49EFEE49DFDDA
:040A5B00E49CFC22F9
:10080000EB9FF5F0EA9E42F0E99D42F0EC6480C86F
:0608100064809845F0220F
:1008F000020B00E493A3F8E493A34003F68001F213
:1009000008DFF48029E493A3F85407240CC8C33308
:10091000C4540F4420C8834004F456800146F6DFD7
:10092000E4800B0102040810204080900B20E47E3C
:10093000019360BCA3FF543F30E509541FFEE493CC
:10094000A360010ECF54C025E060A840B8E493A393
:10095000FAE493A3F8E493A3C8C582C8CAC583CABE
:10096000F0A3C8C582C8CAC583CADFE9DEE780BE76
:010B270000CD
:1008160075F008758200EF2FFFEE33FECD33CDCC99
:1008260033CCC58233C5829BED9AEC99E58298401C
:100836000CF582EE9BFEED9AFDEC99FC0FD5F0D6F9
:10084600E4CEFBE4CDFAE4CCF9A88222B800C1B923
:100856000059BA002DEC8BF084CFCECDFCE5F0CB61
:10086600F97818EF2FFFEE33FEED33FDEC33FCEB9A
:1008760033FB10D703994004EB99FB0FD8E5E4F955
:10088600FA227818EF2FFFEE33FEED33FDEC33FC42
:10089600C933C910D7059BE99A4007EC9BFCE99A36
:1008A600F90FD8E0E4C9FAE4CCFB2275F010EF2F7B
:1008B600FFEE33FEED33FDCC33CCC833C810D7077B
:1008C6009BEC9AE899400AED9BFDEC9AFCE899F8B6
:0E08D6000FD5F0DAE4CDFBE4CCFAE4C8F92249
:00000001FF
